:1000FC007D027C007F0812008FE4FDFC7F0712005C
:10010C008F7D027C007F0612008F7D047C007F05B2
:10011C0012008F7D017C007F0412008F7D017C001A
:10012C007F0312008FE4FDFC7F0212008F7D027CA6
:08013C00007F0112008F80B862
:10014400EF1FAC0670011E4C60060000000080F03A
:010154002288
:0C0155000A083F065B4F666D7D077F6F58
:10008F00EF14B4080050549000A475F003A4C58376
:10009F0025F0C583730200BC0200C00200C4020039
:1000AF00C80200CC0200D40200DC0200E4C2A4802B
:1000BF000EC2A48012C2A48016C2A4801AD2A4C2F7
:1000CF00A3C2A28016D2A4C2A3D2A2800ED2A4D25F
:1000DF00A3C2A28006D2A4D2A3D2A274082DF8E69E
:0D00EF00F5807F327E00120144E4F580228E
:03000000020003F8
:0C000300787FE4F6D8FD75811102004AF8
:10000F000200FCE493A3F8E493A34003F68001F20B
:10001F0008DFF48029E493A3F85407240CC8C333F2
:10002F00C4540F4420C8834004F456800146F6DFC1
:10003F00E4800B0102040810204080900155E47EFB
:10004F00019360BCA3FF543F30E509541FFEE493B6
:10005F00A360010ECF54C025E060A840B8E493A37D
:10006F00FAE493A3F8E493A3C8C582C8CAC583CAA8
:10007F00F0A3C8C582C8CAC583CADFE9DEE780BE60
:01016100009D
:00000001FF
